:020000040800F2
:10000000B0380020290200080F1C000869190008F8
:100010000D1C0008910500080128000800000000E0
:100020000000000000000000000000009101000836
:100030009305000800000000D5010008F92300081E
:10004000430200084302000843020008430200087C
:10005000430200084302000843020008430200086C
:10006000430200084302000843020008430200085C
:10007000430200084302000843020008430200084C
:10008000430200084302000843020008430200083C
:10009000430200084302000843020008430200082C
:1000A00043020008852400084302000843020008B8
:1000B000912400084302000843020008430200089C
:1000C00043020008430200084302000843020008FC
:1000D00043020008F5270008430200084302000815
:1000E00043020008430200084302000800F002F83F
:1000F00000F03FF80AA090E8000C82448344AAF183
:100100000107DA4501D100F034F8AFF2090EBAE880
:100110000F0013F0010F18BFFB1A43F0010318473B
:100120006452000084520000103A24BF78C878C19D
:10013000FAD8520724BF30C830C144BF04680C60ED
:10014000704700000023002400250026103A28BF35
:1001500078C1FBD8520728BF30C148BF0B60704739
:10016000642900F0C380002070471FB51FBD10B583
:1001700010BD00F0DBF91146FFF7F7FF02F05EFB60
:1001800000F0F9F903B4FFF7F2FF03BC02F049FBFA
:10019000224B19680868B0E8F00F80F30988BFF3B4
:1001A0006F8F4FF0000080F311884EF00D0E7047F6
:1001B0000000000006480068006880F3088862B606
:1001C00061B6BFF34F8FBFF36F8F00DF00BF00BF7B
:1001D00008ED00E0EFF30980BFF36F8F0F4B1A6853
:1001E00020E9F00F106008B54FF0500080F311883F
:1001F000BFF34F8FBFF36F8F02F0DAFE4FF00000B6
:1002000080F31188BDE8084019680868B0E8F00F6D
:1002100080F30988BFF36F8F704700BF6400002030
:10022000EFF3058070470000094880470948004700
:10023000FEE7FEE7FEE7FEE7FEE7FEE7FEE7FEE796
:10024000FEE7FEE704480549054A064B70470000F3
:1002500083240008ED000008B0160020B03800200C
:10026000B0180020B0180020704700000FB40449F7
:1002700010B503AA029800F02BF910BC5DF814FB2E
:10028000500000202DE9F0410E4604460020206277
:100290002046E168884730B3252805D0D4E90121FC
:1002A0009047206A401CF2E7E16820460027884713
:1002B000050018D0A5F14100192802D820354FF4C7
:1002C00000673246294620462760FFF749FF40B1C4
:1002D000012804D0F61D26F007060836D8E7361D9B
:1002E000D6E72846DAE7206ABDE8F0812DE9F0413B
:1002F0000646002410687529314616A510D0AFF3C4
:100300000080002802DA404213A507E031688A071E
:1003100001D512A502E0490704D511A5012401E089
:10032000AFF3008000210A2206F1240709E0B0FBA8
:10033000F2FCB0FBF2F302FB1C003030785418469C
:10034000491C0028F3D123462A463046BDE8F04137
:1003500000F065B8000000002D0000002B00000038
:100360002000000010B5203AC0F00B80B1E8185012
:10037000203AA0E81850B1E81850A0E81850BFF48F
:10038000F5AF5FEA027C24BFB1E81850A0E818502E
:1003900044BF18C918C0BDE810405FEA827C24BF82
:1003A00051F8043B40F8043B08BF7047D20728BF10
:1003B00031F8023B48BF11F8012B28BF20F8023B5F
:1003C00048BF00F8012B70474FF0000200B51346FC
:1003D00094469646203922BFA0E80C50A0E80C5065
:1003E000B1F12001BFF4F7AF090728BFA0E80C5016
:1003F00048BF0CC05DF804EB890028BF40F8042B0F
:1004000008BF704748BF20F8022B11F0804F18BF7B
:1004100000F8012B704770477047704770472DE90F
:10042000F0470D4699469246044600F124080168BB
:10043000880604D5E06921F01001216000E0012068
:10044000A84201DD471B00E00027A1697A1902EBF1
:100450000900081AA0612078C00602D42046AFF334
:100460000080002608E0D4E901211AF80600904730
:10047000206A401C761C20624E45F4DB2078C006C2
:100480000AD52046AFF3008006E0D4E901213020F0
:100490009047206A401C2062381EA7F10107F4DC57
:1004A00007E0D4E9012118F805009047206A401CB4
:1004B0002062281EA5F10105F3DC2046AFF3008081
:1004C0002078000602D50220BDE8F0870120FBE776
:1004D000074B70B50D467B4400F011F804462846E2
:1004E00000F020F810B14FF0FF3070BD204670BD15
:1004F0004B23000001694A1C02610878704700B56F
:100500008FB0CDE901310021059105497944CDE94C
:10051000031011466846FFF7B5FE0FB000BD00009E
:10052000E5FFFFFF007B00F080007047754600F09C
:100530002BF8AE4605006946534620F00700854675
:1005400018B020B5FFF77EFEBDE820404FF0000652
:100550004FF000074FF000084FF0000B21F00701AB
:10056000AC46ACE8C009ACE8C009ACE8C009ACE8EE
:10057000C0098D46704710B50446AFF30080204691
:10058000BDE81040FFF7FEBD004870475016002040
:10059000FEE7704772B6FEE710B590F82110002212
:1005A000022905D00421816380F82020012010BD9C
:1005B00001680B6823F00E030B6001680B6823F0E1
:1005C00001030B6090F84030C46B012101FA03F382
:1005D000636080F8211080F82020104610BD0000D4
:1005E00010B590F821100024022903D00421816362
:1005F00001243DE001680A6822F00E020A600168E9
:100600000A6822F001020A601A4A0168914201D187
:10061000012121E0174A1432914201D110211BE03F
:10062000144A2832914201D1891515E0114A3C3211
:10063000914201D189140FE00E4A5032914202D109
:100640004FF4803108E00B4A6432914202D14FF4FA
:10065000801101E04FF08071064A083A5160012193
:1006600080F82110002180F82010416B01B18847EB
:10067000204610BD080002400348016941F0800196
:100680000161002070470000002002400649002060
:100690000A69120607D5054A4A60054A4A6009698F
:1006A000090600D50120704700200240230167455C
:1006B000AB89EFCD2DE9F84FDFF8B8910024A9F10F
:1006C000040B23460F2709F1040AABF1040EC9E01D
:1006D0000125A5402A40AA427DD1674ED1F804C029
:1006E000ACEB0608B44532D014DCBCF1030F3AD0B1
:1006F00009DCBCF1000F2AD0BCF1010F1CD0BCF109
:10070000020F31D11DE0BCF1110F17D0BCF1120F57
:100710002AD119E0B8F5881F19D006DCB8F5803F5A
:1007200015D0B8F5801F1FD111E0B8F5001F0ED00D
:10073000B8F5041F18D10AE0CB6815E0CB681B1D83
:1007400012E0CB6808330FE0CB680C330CE08B6809
:100750002BB1012B4FF0080303D0456104E00423C3
:1007600002E0056100E00023FF2A01D8064601E00F
:1007700000F104064FEA840501D9A5F12005D6F859
:10078000008007FA05FC28EA0C0803FA05F548EA98
:100790000508C6F800804D68ED0062D5374DAE699A
:1007A00046F00106AE61AD6924F0030605F00105CF
:1007B0000095334D06EB050CDCF80850A607360F04
:1007C00007FA06F825EA0805DFF8B880404503D1A6
:1007D0004FF0000817E044E0DFF8AC80404502D15C
:1007E0004FF001080FE0DFF8A480404502D14FF040
:1007F000020808E0DFF89880404502D14FF0030876
:1008000001E04FF0040808FA06F848EA0508CCF8B9
:1008100008804D68D9F80060ED024D4601D51643B9
:1008200000E096432E604D68DAF80060AD02554650
:1008300001D5164300E096432E604D68DBF800605A
:10084000AD035D4601D5164300E096432E604D682A
:10085000DEF80060ED03754601D5164300E09643CF
:100860002E60641C0D682A46E5407FF431AFBDE878
:10087000F88F000008040140000011100010024031
:100880000000014000080140000C01400010014040
:10089000001401400AB1016170470904FBE7000040
:1008A000014880687047000054000020074810B5D8
:1008B000016841F010010160032000F0A1F80F2051
:1008C00000F006F800F04AF8002010BD00200240B9
:1008D00030B505461C4887B0816941F400618161EB
:1008E000806906A900F40060009001A800F030F9CA
:1008F00000F05EF91549164AB0FBF1F11548491EA2
:100900000260416040F2E7320021C0E903218160CA
:10091000816100F049FB040012D10E4800F0A4FBF5
:1009200004000DD1192000F03DF8102D07D200224F
:100930002946192000F044F80748056000E001242A
:1009400007B0204630BD00000010024040420F00BA
:10095000002C014098040020580000200F4808B5E2
:10096000816941F001018161816901F0010100911A
:10097000C16941F08051C161C069002200F080501E
:1009800000900F21901E00F01BF80548416821F0EF
:10099000E06141F00071416008BD000000100240BC
:1009A00000000140002809DB00F01F0201219140F6
:1009B0004009800000F1E020C0F8001170470000FD
:1009C000F0B40E4B1B680C46C3F30223C3F10705BA
:1009D000042D00D90425191D072901D2002300E0A8
:1009E000DB1E012606FA05F1491E214099409E4072
:1009F000761E16403143F0BC01F003BF0CED00E061
:100A0000064900F0070208684FF6FF03184040EA65
:100A10000220034A10430860704700000CED00E01C
:100A20000000FA052DE9F0470F46050061D0434E5E
:100A3000306800F00700B84209D2306820F00700A3
:100A400038433060306800F00700B84251D1286860
:100A50003B4C810712D5400703D5606840F4E06045
:100A600060602878000703D5606840F460506060DB
:100A70006068A96820F0F000084360602878C0072B
:100A800028D06868012810D02168022810D0890772
:100A900000292EDA616821F0030101436160FFF74C
:100AA000FFFE804641F288390DE021688903EFE7B7
:100AB0008901EDE7FFF7F4FEA0EB0801494502D9F3
:100AC0000320BDE8F0876068696800F00C00B0EBB7
:100AD000810FEFD1306800F00700B8420BD93068C1
:100AE00020F0070038433060306800F00700B8425B
:100AF00001D00120E5E72878400705D56068E9685E
:100B000020F4E060084360602878000706D560683C
:100B1000296920F4605040EAC100606000F058F894
:100B20006168084AC1F30311515CC8400649086076
:100B300006480068FFF7CCFE0020C2E70020024014
:100B400000100240B6340008600000205800002069
:100B50000F2202600C4A536803F00303436053689A
:100B600003F0F0038360536803F4E063C3605268EA
:100B70004FF4E06303EAD20202610448006800F027
:100B8000070008607047000000100240002002408B
:100B90000448054900684968044AC1F30221515CD0
:100BA000C84070476000002000100240C6340008B2
:100BB0000448054900684968044AC1F3C221515CF0
:100BC000C84070476000002000100240C634000892
:100BD0000E4A51680E4801F00C03042B11D0082B6B
:100BE0000FD10C48C1F38343C903C05C0AD55168D7
:100BF000084AC1F34041921E515C054A5043B0FB84
:100C0000F1F070470449484370470000001002406B
:100C100000127A00A634000800093D002DE9F84FC3
:100C2000040070D02078C04DC00749D06868C0F378
:100C30008100012807D06868C0F38100022809D12B
:100C40006868C00306D52868800339D56068002825
:100C5000E7D035E06068B0F5803F0BD010B1B0F55B
:100C6000A02F11D0286820F480302860286820F454
:100C7000802002E0286840F480302860606890B1ED
:100C8000FFF70EFE06460AE0286840F48020286040
:100C9000F0E700BFFFF704FE801B642873D82868C4
:100CA0008003F7D50CE0FFF7FBFD064605E000BF2B
:100CB000FFF7F6FD801B6428F0D828688003F7D47E
:100CC00020789A4E80074FF001094FF0000839D57F
:100CD000686810F00C0F07D06868C0F38100022824
:100CE00009D16868C00306D42868800714D5206934
:100CF000012808D110E02069B0B1C6F80090FFF7D4
:100D0000CFFD074605E00AE1FFF7CAFDC01B022838
:100D1000C4D828688007F7D52868616920F0F800F2
:100D200040EAC10028600DE0C6F80080FFF7B8FD7A
:100D3000074604E0FFF7B4FDC01B022823D828684B
:100D40008007F7D4207800072CD57948A169D9B15C
:100D5000C0F80090FFF7A4FD074604E0FFF7A0FDF0
:100D6000C01B02280FD8686A8007F7D571484FF476
:100D7000FA510068B0FBF1F0009000BF0098411EEE
:100D80000091FAD20EE080E0C0F80080FFF788FD05
:100D9000074604E0FFF784FDC01B022875D8686A87
:100DA0008007F7D42078400760D5E8690027C000A5
:100DB00008D4E86940F08050E861E869012700F054
:100DC000805000905C480168C90513D401688346CF
:100DD00041F480710160FFF763FD824606E000BFC9
:100DE000FFF75EFDA0EB0A0064284ED8DBF8000098
:100DF000C005F5D5E06801280AD008B1052813D050
:100E0000286A20F001002862286A20F0040002E02D
:100E1000286A40F001002862E06841F2883B98B1FE
:100E2000FFF73EFD82460BE0286A40F0040028628E
:100E3000EEE700BFFFF734FDA0EB0A0159455AD891
:100E4000286A8007F6D50CE0FFF72AFD824605E008
:100E5000FFF726FDA0EB0A0159454CD8286A800708
:100E6000F6D41FB1E86920F08050E861E06988B3EA
:100E70006968C1F38101022944D00228C6F8608064
:100E800004D0FFF70DFD044638E034E0FFF708FD1D
:100E9000074604E0FFF704FDC01B02282BD8286892
:100EA0008001F7D4206AB0F5803F05D16868A16859
:100EB00020F4003008436860D4E9080108436968F9
:100EC00021F4741108436860C6F86090FFF7E8FCED
:100ED000044606E025E000BFFFF7E2FC001B022805
:100EE00009D828688001F7D51BE000BFFFF7D8FCC0
:100EF000001B022802D90320BDE8F88F2868800172
:100F0000F4D40EE00128F7D06868226A00F480313A
:100F1000914204D1616A00F47010884201D001202E
:100F2000EAE70020E8E7000000100240000042422B
:100F3000800442426000002000700040704770470B
:100F400070B590F83C20012A26D0012480F83C405E
:100F5000022280F83D2003685A689D6822F07006DE
:100F60000A6832435A600D4B02689A4208D0B2F1C7
:100F7000804F05D00A4B9A4202D00A4B9A4204D1C4
:100F8000496825F080031943916080F83D400021B5
:100F900080F83C10084670BD022070BD002C014056
:100FA000000400400008004010B5040003D094F88D
:100FB0003D0010B107E0012010BD002084F83C0086
:100FC000204600F01FF8022084F83D00211D206813
:100FD00001F064FA012084F8460084F83E0084F8A9
:100FE0003F0084F8400084F8410084F8420084F80F
:100FF000430084F8440084F8450084F83D00002054
:1010000010BD000000B585B0002100910191029152
:1010100003910068B0F1804F1FD11148C16941F0C0
:101020000101C161C16901F001010491816941F0CF
:10103000040181618069694600F004000490012088
:10104000009002900748FFF735FB002205211C2085
:10105000FFF7B6FC1C20FFF7A5FC05B000BD0000A3
:10106000001002400008014090F83D10012901D015
:1010700001207047022180F83D100168CA6842F0E3
:101080000102CA6000680B49884208D0B0F1804F65
:1010900005D00949884202D00849884204D18168B4
:1010A00001F00701062903D0016841F00101016048
:1010B00000207047002C0140000400400008004060
:1010C00070B5044690F83C000025012817D0012691
:1010D00084F83C60022084F83D002068826822F099
:1010E000770222F47F4282600868502838D00DDCF5
:1010F00020284FD005DC90B3102811D14AE00220FF
:1011000070BD302846D040280AD13BE060282FD05F
:1011100070280DD0B0F5805F03D0B0F5005F12D01D
:10112000012584F83D60002084F83C00284670BD0D
:10113000CB68D1E90121206801F0F3F920688168CA
:1011400041F0770109E0CB68D1E90121206801F085
:10115000E8F92068816841F480418160E1E719E0A5
:10116000CA684968206801F0EEF95021206806E05D
:10117000CA684968206801F023FA6021206801F0FC
:10118000DAF9CEE7CA684968206801F0DCF9402145
:101190002068F4E7226801461046F0E770B5016860
:1011A000B1F1804F12D1124D124C287878B1002144
:1011B000204600F01FFA68802068016A21F00A01C9
:1011C00001622068016A01620220287070BD00205F
:1011D000486221680A6A22F00A020A6221680A6AE1
:1011E00042F002020A6201212970A880688070BD65
:1011F0003C000020080400202DE9F041054690F84D
:101200003C0000260C46012810D0012085F83C0047
:1012100072B1042A1CD0082A2CD00C2A50D00126E6
:10122000002085F83C003046BDE8F0810220FBE755
:10123000D4E90012E368286801F096F9286881690A
:1012400021F00C01816128688169A26811430FE0D7
:10125000D4E90012E368286801F0C4F928688169BC
:1012600021F44061816128688169A26841EA022114
:101270008161D5E72868D4E9002C277B036A016ADD
:1012800021F480710162C16923F4007321F003012C
:1012900041EA0C0121F0F00C39074FF400774CEAD9
:1012A000116107EA02221A43C16102622868C1691A
:1012B00021F00C01C1612868C169A26811432BE0CB
:1012C0002868D4E90021E768036AD0F820C02CF42C
:1012D000805CC0F820C0D0F81CC023F400532CF46C
:1012E000407C4CEA012121F4704C4FF6FF7101EA79
:1012F00007314FF4005741EA0C0107EA02321A4362
:10130000C16102622868C16921F44061C161286835
:10131000C169A26841EA0221C16181E710B50400F8
:1013200003D094F83D0010B107E0012010BD00206B
:1013300084F83C00204600F01EF8022084F83D00AE
:10134000211D206801F0AAF8012084F8460084F8E5
:101350003E0084F83F0084F8400084F8410084F89F
:10136000420084F8430084F8440084F8450084F87F
:101370003D00002010BD704730B50446002551B136
:1013800004290DD0082910D094F8410094F8452084
:10139000012811D10EE094F83E0094F84220F7E7BE
:1013A00094F83F0094F84320F2E794F8400094F852
:1013B0004420EDE7012A01D0012030BD022059B1BF
:1013C000042912D0082919D084F8410084F8450076
:1013D0000C2938D0012534E084F83E0084F842001E
:1013E0002068C26842F0020210E084F83F0084F8EE
:1013F00043002068C26842F0040207E084F840001D
:1014000084F844002068C26842F00802C2600122E9
:10141000206801F079F80E492068884208D0B0F1C0
:10142000804F05D00B49884202D00B49884204D135
:10143000816801F00701062903D0016841F001012C
:101440000160284630BD2068C26842F01002DDE726
:10145000002C0140000400400008004070B5044624
:10146000006801694FF00005C943890715D4C168B8
:10147000C943890711D4E91E016101202077206842
:1014800080698007204602D0FFF788FE04E000F064
:1014900098F8204600F096F8257720680169C9433E
:1014A000490717D4C168C943490713D46FF0040131
:1014B0000161022020772068806910F4407F204677
:1014C00002D0FFF76BFE04E000F07BF8204600F04E
:1014D00079F8257720680169C943090716D4C168DE
:1014E000C943090712D46FF0080101610420207775
:1014F0002068C0698007204602D0FFF74FFE04E055
:1015000000F05FF8204600F05DF82577206801695B
:10151000C943C90617D4C168C943C90613D46FF0BB
:1015200010010161082020772068C06910F4407F15
:10153000204602D0FFF732FE04E000F042F82046D9
:1015400000F040F8257720680169C943C90708D130
:10155000C168C943C90704D1891E0161204600F052
:1015600033F820680169C943090609D4C168C94331
:10157000090605D46FF0800101612046FFF7DEFC0B
:1015800020680169C943490609D4C168C9434906AD
:1015900005D46FF040010161204600F040F820685A
:1015A0000169C94389060BD4C168C943890607D4B8
:1015B0006FF0200101612046BDE87040FFF7BFBC1D
:1015C00070BD7047704700000068B0F1804F0BD1CC
:1015D00007480178012907D181884FF6FF729142AF
:1015E00003D10221017042807047491C81807047FD
:1015F0003C0000200246002041B1042909D00829FE
:101600000AD00C2901D11068006C70471068406B3B
:1016100070471068806B70471068C06B70477047E8
:1016200070477047F8B5016804460868CA684B6996
:1016300010F00F0F4FF0000559D003F0010602F42F
:101640009077374365D0C10705D0D10503D5616CCC
:1016500041F001016164410705D5D90703D0616CF0
:1016600041F002016164810705D5D90703D0616C9F
:1016700041F004016164010707D502F02001314304
:1016800003D0616C41F008016164616C00293AD0BB
:10169000800604D5900602D5204600F0EDFF2068B4
:1016A0004069616CC0F38010090700D460B3204624
:1016B00000F0BBFF20684069400621D52068143047
:1016C00050E8001F21F0400140E80012002AF5D147
:1016D000E06BA8B16D494163E06BFEF781FF002824
:1016E00011D0E06B416B01B0BDE8F04008478306C4
:1016F0000FD593060DD52046BDE8F84000F0BCBFDD
:101700002046FFF78EFFF8BD2046FFF78AFF65648D
:10171000F8BD266B2023012E7CD1C6067AD5D606CD
:1017200078D508684868009048694FF0020640067E
:1017300040D5E16B086840680004000CE8D0A28D39
:101740008242E5D9E085886920282DD020680C30B8
:1017500050E8001F21F4807140E80012002AF5D102
:101760002068143050E8001F21F0010140E8001209
:10177000002AF5D12068143050E8001F21F0400104
:1017800040E80012002AF5D184F842302563206831
:101790000C3050E8001F21F0100140E80012002A30
:1017A000F5D1E06BFEF7F8FE6663A08DE18D401A7F
:1017B00081B22AE0A08DE18D401A81B2E08D00282F
:1017C000A6D00029A4D022680C3252E8000F20F4E1
:1017D000907042E80007002FF5D12068143050E8DF
:1017E000002F22F0010240E80027002FF5D184F8F5
:1017F0004230256320680C3050E8002F22F01002A0
:1018000040E80023002BF5D166632046FFF708FF70
:10181000F8BDFFE705062BD5150629D594F841003C
:101820002128F5D1A068B0F5805F01D12069B0B161
:10183000206A411C2162216800784860E08C401ECB
:101840000004000CE084E3D12068C16821F080012D
:10185000C1602068C16841F04001C160D8E7206ADA
:101860000088C0F308004860206A801C2062E5E719
:101870004006CDD55006CBD5CA68204622F040029E
:10188000CA6084F8413000F06EF8C1E71B260008FA
:1018900070B5040004D094F84100002510B106E0B2
:1018A000012070BD84F84050204600F023F8242029
:1018B00084F841002068C16821F40051C1602046CD
:1018C00000F03CFF2068016921F49041016120682B
:1018D000416921F02A0141612068C16841F4005149
:1018E000C1606564202084F8410084F8420065638B
:1018F000002070BD30B585B000240094019402949E
:10190000039400681449884224D11448816941F441
:1019100080418161816901F480410491816941F0D4
:101920000401816180690E4D00F0040004904FF4C1
:101930000070009002200190032003906946284621
:10194000FEF7B8FE2815CDE9000469462846029442
:10195000FEF7B0FE05B030BD003801400010024077
:101960000008014070477047FEE7000010B50E4CBC
:10197000012202212046FEF78DFF0122114620465A
:10198000FEF788FF00F046F8002202212046FEF70D
:1019900081FF00F03FF8002201212046FEF77AFF88
:1019A000BDE8104000F036B8000C014010B50A4CFC
:1019B000002202212046FEF76DFF0122114620463B
:1019C000FEF768FF00F026F820460122BDE810402F
:1019D0000221FEF75FBF0000000C014010B50C4C67
:1019E000012202212046FEF755FF00F013F80122E4
:1019F00011462046FEF74EFF00F00CF800220121B0
:101A00002046FEF747FFBDE8104000F003B8000095
:101A1000000C01400320401EC0B2FCD27047000001
:101A200010B54FF00064FEF731FE084A002002CCEA
:101A30000B0A02F8103002EB4003401CC0B2597090
:101A40000628F4D3BDE81040FEF716BE4200002081
:101A500010B596B01C2211496846FEF783FC0021A0
:101A6000684600F033FF0E4C0C491C2260611C31AB
:101A700007A8FEF777FC002107A800F027FF074919
:101A8000A0611C2238310EA8FEF76CFC00210EA8C4
:101A900000F01CFFE06116B010BD000050340008DB
:101AA000000000202DE9F04186B000242048009479
:101AB000019402940394816941F02001816181695C
:101AC00001F020010491816941F004018161816983
:101AD00001F004010491816941F00801816180698C
:101AE000144F00F008000490002230213846FEF721
:101AF000D1FEDFF84480002203214046FEF7CAFEF3
:101B0000302001250226CDE90005CDE902466946CF
:101B10003846FEF7CFFD0320CDE90005CDE90246AA
:101B200069464046FEF7C6FD06B0BDE8F0810000FC
:101B30000010024000080140000C014010B58AB0BE
:101B40000024234804940594069407940894099467
:101B50000094019402944FF0804103940160472166
:101B6000C0E901144FF6FF71C0E9031480218161BF
:101B7000FFF71AFA08B1FEF70DFD4FF480500490FC
:101B800004A91348FFF79CFA08B1FEF703FD1048BB
:101B9000FFF7C4FB08B1FEF7FDFC089408A90C4848
:101BA0000994FFF7CDF908B1FEF7F4FC022000908C
:101BB0000120CDE901040022694605480394FFF79E
:101BC0001BFB002801D0FEF7E5FC0AB010BD0000A9
:101BD000080400200C4810B50A4901604FF4E131B7
:101BE0004160002181600C22C160C0E90412816162
:101BF000C161FFF74DFE002803D0BDE81040FEF79D
:101C0000C9BC10BD0038014050040020FEE7FEE7CB
:101C100030B40021084B0A465FF0000003EBC0041B
:101C2000401CC0B262548028F8D3491CC9B20829AC
:101C3000F2D330BC00F0B0B8D011002030B1012890
:101C400007D100215FF0A70000F055BA0021A620BF
:101C5000FAE7704710B558B1012810D10021C02013
:101C600000F049FA0021A020BDE8104000F043BA7E
:101C70000021C82000F03FFA0021A120F4E710BDA8
:101C800030B5CC0801F0070301259D40EBB2064DAD
:101C900005EBC005C808285C0AB1184302E063EAF6
:101CA0000000C043285530BDD011002010B50021E0
:101CB000AE2000F020FA0021084600F01CFA0021B6
:101CC000102000F018FA0021402000F014FA002142
:101CD000812000F010FA0021CF2000F00CFA002142
:101CE000A12000F008FA0021C82000F004FA002129
:101CF000A62000F000FA0021A82000F0FCF9002145
:101D00003F2000F0F8F90021D32000F0F4F9002181
:101D1000084600F0F0F90021D52000F0ECF9002190
:101D2000802000F0E8F90021D92000F0E4F900213A
:101D3000F12000F0E0F90021DA2000F0DCF90021C8
:101D4000122000F0D8F90021DB2000F0D4F90021A6
:101D5000302000F0D0F90021202000F0CCF9002143
:101D6000022000F0C8F900218D2000F0C4F9002104
:101D7000142000F0C0F9FFF74BFF0021BDE8104030
:101D8000AF2000F0B8B90246012000E05043491EE0
:101D9000C9B2FBD27047000070B5184E002400BFD6
:101DA00004F1B000C0B2002100F0A5F900210846FE
:101DB00000F0A1F90021102000F09DF9FFF7D6FDF9
:101DC000782000F0B3F9FFF709FE402000F0AEF9EB
:101DD000FFF704FE5FF0000506EBC500005D00F0B4
:101DE000A5F9FFF7FBFD6D1CEDB2802DF4D3FFF7D5
:101DF000DDFD641CE4B2082CD2D370BDD0110020EC
:101E00002DE9FC4F1C460E4682468B460190082B5E
:101E10000DD0600700D0012000EBD40061084843DA
:101E2000C0B28146203AD0B2009000204BE006209C
:101E3000F7E7082C13D00C2C18D0102C1BD0182C22
:101E400044D10098234900EBC00000BF01EB8001A2
:101E5000002711F80850E80712D00B9A13E00098F9
:101E60001D4900EB400001EB4001F1E700981B49E0
:101E700000EB4000EAE71A49009801EB0011E7E7A0
:101E80000B9828B3002231465046FFF7F9FE761C26
:101E90007F1C6D08FFB2F6B2082FDCD30AF10100F7
:101EA00000F0FF0A082C0AD00199AAEB0100B0EB60
:101EB000540F04D10BF108008A4600F0FF0B08F123
:101EC00001005E46C0B280464845B2D3BDE8FC8FF3
:101ED0000122D8E75A410008CE340008F63600083F
:101EE0006A3B00082DE9FF4F81B08146009098467B
:101EF0000E468B46580701D0012100E0002101EB7E
:101F0000D80000FB08FA002448E000BFB8F1100F29
:101F100012D0B8F1180F14D0B8F1200F19D0B8F1C1
:101F2000400F3DD12149039801EB40200027055D7A
:101F3000E80714D00E9A15E01D49039801EB4010F4
:101F4000F4E70398194900EBC000C83901EBC00061
:101F5000ECE716490398803901EBC010E6E70E98CC
:101F600008B3002231464846FFF78AFE761C7F1CE4
:101F70006D08FFB2F6B2082FDAD309F1010000991B
:101F800000F0FF09A9EB0101414505D10BF1080063
:101F9000DDF8009000F0FF0B5E46641C5445B5D39D
:101FA00005B0BDE8F08F0122DCE700005E510008BB
:101FB000B64E00082DE9F84F0025DDE90A691F46F5
:101FC00092468B468046082E00D1022500241CE054
:101FD000381B401EC1B20A20FFF7D5FEBAFBF0F055
:101FE0000A21B0FBF1F201FB1200CDF8009080B1A4
:101FF0003030C2B205EB560101FB0480C0B233465B
:102000005946FFF7FDFE641CE4B2BC42E0D3BDE8D4
:10201000F88F05EB560101FB0480C0B23346302235
:10202000EEE72DE9FF4F82B08046019092460C46C4
:102030004FF000098B46580700D0012000EBD30079
:102040000590002030E0002629E00F98002510F8C8
:10205000097009F10109F80701D0109A02E01098FF
:1020600048B3002221464046FFF70AFE641C6D1C5F
:102070007F08EDB2E4B2082DEDD308F1010001991B
:1020800000F0FF08A8EB0101514505D10BF1080054
:10209000DDF8048000F0FF0B761C5C46F6B2564576
:1020A000D3D30098401CC0B2009005998842CAD38F
:1020B00006B0BDE8F08F0122D4E72DE9F8411E46B5
:1020C000154688460446079F0BE0334641462046A6
:1020D0000097FFF795FE082E0AD004EB5600C4B215
:1020E0006D1C2A78A2F120005E28EED9BDE8F881A7
:1020F000A41DE4B2F4E770B50C460546FFF736FCC4
:10210000782000F013F8FFF769FC0CB1402000E0E4
:10211000002000F00BF8FFF761FC284600F006F8FD
:10212000FFF75CFCBDE87040FFF740BC70B5104E97
:1021300005460024280601D5012200E000220221E4
:102140003046FEF7A7FBFFF765FC0122114630463B
:10215000FEF7A0FBFFF75EFC002201213046FEF7F0
:1021600099FB6806641C050EE4B2082CE2D370BD2E
:10217000000C0140012000F09DFBFBE71CB5FFF7C0
:102180004FFC01241027334D0026E86801285FD159
:10219000FFF73EFDAA680A2A01DA012300E00223C4
:1021A000CDE9007400210846FFF704FF10232AA29E
:1021B000002114200094FFF780FFA868132838D16D
:1021C000686A002835DD10230B22142100200094BA
:1021D000FFF788FE10230C22142118460094FFF705
:1021E00081FE10230D22142120200094FFF77AFE97
:1021F00010230B22282100200094FFF773FE1023E8
:102200000E22282118460094FFF76CFE10230D22A1
:10221000282120200094FFF765FEDFF8408001228E
:1022200020214046FEF736FB012210214046FEF7F2
:1022300031FB6A6A0A2A01DA012300E00223CDE9B0
:10224000007400212820FFF7B5FEFFF7A5FDEE6022
:102250002E619AE7000000202C00000000080140D9
:102260001FB5514FDFF84491DFF844814FF0010A68
:102270000025A7F13C0438780228FCD1B888C0EBCF
:10228000004178880E1831464AA0FDF7EFFFA6F509
:1022900043414C4851393D70814201D8294613E0F1
:1022A000494831184846814201D851460CE0474917
:1022B0003144814201D8022106E045493144494573
:1022C00001D9206809E00321226842A048F82210C1
:1022D000FDF7CCFF2068401C206008EB800151F81E
:1022E000182CEABB51F8142C012A57D151F8102CA4
:1022F000012A53D151F80C2C022A4FD151F8082C45
:1023000072BB12284ADB51F84C0C20B1012805D0D1
:10231000022805D006E0C4F820A003E0152000E064
:102320002920206251E9110202EB8006A66051F8D3
:102330003C0C51F8382C000100EB820051F8342C91
:102340000244626251E90C3000EB8300606351F893
:10235000283C0BB1012B01D1C4F838A0022B00E0BE
:102360001CE001D0032B01D10C36A66051F8243DAE
:102370004E681B0103EB86038968564619441823EF
:10238000A362C4E90BA1CDE90210CDE9003A13A084
:10239000236AA168FDF76AFFE66002E03C287FF44B
:1023A0006AAF2560656066E73C0000209F860100FB
:1023B000C4000020484947483A25642075730D0A37
:1023C00000000000AFAD0100FF8EFDFF5F08FCFFC5
:1023D000BF81FAFF4250433A2564000025643A2544
:1023E000643A25642025642F25642F256420D0C7F6
:1023F000C6DA25640000000010B5502080F3118873
:10240000BFF34F8FBFF36F8F00F0ACFE18B10449DC
:102410004FF080500860002080F3118810BD00004C
:1024200004ED00E030B58FB028216846FDF7CCFF01
:1024300014210AA8FDF7C8FF01210804CDE9001006
:102440000024029402250491CDE907504FF4E010D6
:1024500009906846FEF7E2FB08B172B6FEE70F206E
:10246000CDE90A054FF48060CDE90C4002210AA8AD
:102470000E94FEF7D7FA002801D072B6FEE70FB02F
:1024800030BD70470148FEF7E9BF00009804002006
:102490000148FEF7E3BF000008040020F0B5026821
:1024A000164B174C174D4FF08047984205D0B84255
:1024B00003D0A04201D0A84203D122F070064A689E
:1024C0003243984205D0B84203D0A04201D0A8427E
:1024D00003D122F44074CA6822434C6922F080027E
:1024E000224302608A68C2620A688262984201D10D
:1024F0000969016301214161F0BD0000002C014028
:10250000000400400008004010B501F01F03012145
:10251000046A99408C430462016A9A401143016243
:1025200010BD10B5846842EA032224F47F440A43B4
:102530002243826010BD826822F070020A4342F09A
:1025400007018160704710B5036A046A24F0010432
:102550000462846924F0F00444EA021423F00A02BD
:102560000A438461026210BD70B5056A046A24F0F2
:102570000104046284690F4EB04208D0B0F1804F6C
:1025800005D00D4EB04202D00C4EB04203D124F023
:102590000304144301E044F001041A0724F0F0049A
:1025A00044EA126225F00A0301F00A01194382612C
:1025B000016270BD002C0140000400400008004092
:1025C00010B5036A046A24F010040462846923F0DD
:1025D000A00324F4704444EA023243EA0111826108
:1025E000016210BD30B5046A056A25F01005056268
:1025F000856925F4407545EA022222F470454FF6BC
:10260000FF7202EA033224F0A0032A43A02404EA62
:10261000011119438261016230BD10B5406A002189
:10262000C185C184FEF7FDFF10BD01680C3151E882
:10263000002F22F4907241E80023002BF5D10168AD
:10264000143151E8002F22F0010241E80023002B51
:10265000F5D1016B012909D101680C3151E8002F36
:1026600022F0100241E80023002BF5D1202180F850
:10267000421000210163704708B590F842102229EA
:1026800001D0022008BD82684FF480539A4201D1E4
:10269000016921B1816A9A421BD04AB10AE00268FD
:1026A000816A5268C2F308020A80816A891C08E0C4
:1026B000026972B10268526802F07F020A70816A90
:1026C000491C8162C18D491E0904090CC18503D0D2
:1026D0001BE002685268F1E70168CA6822F0200234
:1026E000CA600168CA6822F48072CA6001684A69D7
:1026F00022F001024A61202180F84210002141634A
:10270000026B012A03D0FFF72DF9002008BD0163F9
:1027100001680C3151E8002F22F0100241E800233B
:10272000002BF5D101680A68D20602D50A6849680B
:102730000091818DFEF774FFE7E7000070B5044655
:1027400000680169E26821F4405111430161216987
:10275000A0680843616908432168CA6841F20C63B4
:102760009A430243CA6020684169A26921F440711A
:10277000114341611E492068884202D1FEF718FAD0
:1027800001E0FEF705FA00EBC00101EB0012606802
:1027900064218000B2FBF0F3B3FBF1F36FF0180695
:1027A0007343B2FBF0F5B2FBF0F605EB8305322381
:1027B00003EB0515B5FBF1F5B6FBF1F605F0F005F9
:1027C00005EB0615B2FBF0F6B2FBF0F0B0FBF1F052
:1027D0006FF01802504306EB800003EB0010B0FBD3
:1027E000F1F0216800F00F002844886070BD0000FF
:1027F000003801400148FEF715BF000050040020DA
:10280000FEE70907090E002804DB00F1E02080F84C
:102810000014704700F00F0000F1E02080F8141D54
:102820007047704704490A685206FCD5024AC1B293
:10283000121D11607047000000380140DAB0FEF749
:1028400035F8FFF7EFFDFFF72DF9FFF72FFA00201E
:10285000FFF7F4F90020FFF7FDF9FFF76FF9FFF735
:10286000B9F90F48FEF700FC00210D48FEF784FD82
:102870004FF4B0720B4902A8FDF774FD012102A8C4
:102880003223CDE900011A4600211846FFF7C9FBA3
:10289000FFF782FAFFF7DCF800F013F8FEE700001C
:1028A00008040020F032000801460020842900D0EE
:1028B000C81C704710B500B9012000F015FB0020BE
:1028C00010BD10B500F036FB002010BD7FB50D46E1
:1028D00004464169B0F9080081B1A16971B1FFF7FF
:1028E000E3FFD4E905128DE80700D4E900102B4678
:1028F000226900F00CFC039004B070BDFFF7D4FF18
:1029000003A9CDE90001208A2B4682B2D4E9001048
:1029100000F0D0FB012801D00020EDE70398EBE7A1
:102920002DE9F041184C0F46054666692068001DE8
:1029300000F016FA38B9206890F82C100120884071
:10294000A1698143A161681C07D137B12168BDE845
:10295000F0410E48091D00F047BA20683544B542E1
:102960004560216805D2A068BDE8F041091D00F06E
:1029700023BA6068091D00F01FFA206B854200D25F
:102980002563BDE8F081000064000020BC05002044
:102990002DE9F041054600F033FA2E4C2069401C29
:1029A000206120682C4F10B1E06940B32DE0256014
:1029B0002069012829D1002606EB860007EB80005C
:1029C00000F0ECF9761C072EF6D323488C3000F08B
:1029D000E5F92148A03000F0E1F91F48B43000F0DB
:1029E000DDF91D48C83000F0D9F91B48DC3000F093
:1029F000D5F919488C3060601430A06005E020687B
:102A0000E96AC06A884200D82560E06A401CE0623A
:102A1000E96A0120A26988401043A06101EB8100AE
:102A200007EB8000291D00F0DFF900F009FAE069EA
:102A300000280CD02068E96AC06A884207D207499A
:102A40004FF080500860BFF34F8FBFF36F8FBDE82A
:102A5000F081000064000020E004002004ED00E0AC
:102A600010B5044690F8510058B101280CD0022846
:102A70000FD0502080F31188BFF34F8FBFF36F8FBB
:102A8000FEE7206B00F0F0F92046BDE8104000F0B2
:102A9000EBB910BD10484FF44061420706D0C01D8D
:102AA0000D4920F00700411AC1F540610B4A00238F
:102AB0000144C2E900030839103A21F0070111600E
:102AC0004B600B600B1AC0E9001393604FF000409D
:102AD0005360D06070470000D0050020B000002097
:102AE000144E154CA6F1C8074FF08058DFF84C90F3
:102AF00012E000BF00F084F9F068C568281D00F0FE
:102B00002FF92069401E2061E068401EE06000F05F
:102B100097F92846FFF7A4FFE0680028EAD1386853
:102B20000128F9D9C9F80080BFF34F8FBFF36F8F29
:102B3000F2E70000A80500206400002004ED00E09A
:102B40002DE9F0479A46DDE9098481466FF00303D9
:102B5000206B03EB82021044089D20F007067007EB
:102B600007D0502080F31188BFF34F8FBFF36F8FD2
:102B7000FEE723180A5C83F834200A5C12B1401C7B
:102B80001028F6D3002784F84370072D00D30625BC
:102B9000E562C4E91157201D00F00BF904F118009B
:102BA00000F007F92461C5F107006462A061E764E1
:102BB00084F8507052464946304600F0BFF8206015
:102BC000B8F1000F01D0C8F80040BDE8F087000060
:102BD00030B5114900E011460A688242FBD34B68C8
:102BE0005C18844203D14068184448600846436832
:102BF0001C18944209D1084C103C2468A24209D008
:102C000052681A4442600A6812680260814200D029
:102C1000086030BD0460F9E7B00000200648416854
:102C2000096829B14168C968C96849680163704782
:102C30004FF0FF31FAE700006400002008484068C8
:102C4000401C4FF0500080F3118804D0BFF34F8F29
:102C5000BFF36F8FFEE7BFF34F8FBFF36F8FFEE7BA
:102C6000B80000202DE9F0410546002700F098F952
:102C7000314E306808B9FFF70DFFF06805424BD1BF
:102C8000C5B3083568070ED005F00700C0F108008D
:102C90000544680707D0502080F31188BFF34F8F99
:102CA000BFF36F8FFEE72DB37068854234D822489A
:102CB000103001460C6801E020460C466168A942CC
:102CC00002D221680029F7D131688C4224D00768EC
:102CD0002168016060680837411B10290FD960190D
:102CE000420708D0502080F31188BFF34F8FBFF305
:102CF0006F8FFEE710E041606560FFF769FF616874
:102D00007068401A7060B268904200D2B060F0689B
:102D100001430020C4E9000100F088FA780707D0D9
:102D2000502080F31188BFF34F8FBFF36F8FFEE702
:102D30003846BDE8F0810000A000002010B5031F58
:102D40004FF080741C601B1F21F001011960191FD6
:102D5000024B0B60143940380A6010BD3D2C00084E
:102D6000D0E9013201699A60D0E901235A604A68CA
:102D7000824201D182684A60002202610868401ED6
:102D80000860086870470000034B036003F15400BB
:102D90000860802010607047B401002000F1080135
:102DA0004FF0FF32C0E90112C160016100210160F2
:102DB000704700210161704730B50B685A1C02D082
:102DC00000F1080202E0026904E022465468256826
:102DD0009D42FAD953684B6099608A6051600861DE
:102DE0000168491C016030BD42684A6093688B608D
:102DF00093685960916008610168491C01607047DF
:102E0000502080F31188BFF34F8FBFF36F8F0A49B3
:102E10004868401C486001280CD10848006810F040
:102E2000FF0F07D0502080F31188BFF34F8FBFF3FF
:102E30006F8FFEE770470000B800002004ED00E04F
:102E40000849486828B1401E486001D180F31188C4
:102E50007047502080F31188BFF34F8FBFF36F8FFF
:102E6000FEE70000B800002070B5002827D0144D00
:102E7000A0F108046168E868014207D1502080F39E
:102E80001188BFF34F8FBFF36F8FFEE722683AB10F
:102E9000502080F31188BFF34F8FBFF36F8FFEE791
:102EA0008143616000F07CF860686968084468608C
:102EB0002046FFF78DFEBDE8704000F0B7B970BD49
:102EC000A00000204FF0E020002101618161054950
:102ED0004FF47A720968B1FBF2F1491E4161072192
:102EE000016170476000002010B5020014D00F4847
:102EF000806B38B1502080F31188BFF34F8FBFF340
:102F00006F8FFEE700F04CF800211046FFF708FD38
:102F100000F08CF9002807D105494FF08050086077
:102F2000BFF34F8FBFF36F8F10BD00006400002010
:102F300004ED00E010B586B00024039405AA04A9AE
:102F400003A80494FFF720FFDDE903010094CDE915
:102F5000011000230EA11048059A00F0D8F80F497F
:102F60000028486311D0502080F31188BFF34F8FA1
:102F7000BFF36F8F4FF0FF3008630120C8614C61D1
:102F800006B0BDE8104000F041B806B010BD00002A
:102F900049444C4500000000E12A0008640000207C
:102FA0000248816B491C8163704700006400002067
:102FB0001448816B11B101214162704700214162C7
:102FC0008169B1FA81F1C1F11F0101EB81020E4962
:102FD00051F822306BB101EB820101F108034A681C
:102FE00052684A609A4201D152684A60D1680160D1
:102FF0007047502080F31188BFF34F8FBFF36F8F5E
:10300000FEE7000064000020E00400201CB5264913
:1030100008780190FF20087008788DF800009DF86E
:1030200000009DF8002000F0F000904207D05020F2
:1030300080F31188BFF34F8FBFF36F8FFEE79DF8CA
:1030400000001A4B00F0500018700720986005E04F
:103050009DF8002052008DF80020401E9DF80020B1
:103060001206F5D49860032807D0502080F3118809
:10307000BFF34F8FBFF36F8FFEE74FF44070986040
:10308000019808700A48016841F470010160016804
:1030900041F070410160FFF715FF00205860FDF717
:1030A00089F800201CBD000000E400E0B80000200A
:1030B00020ED00E02DE9FF5F8346DDE90E879946AC
:1030C00016468A469000FFF7CDFD05001CD054201F
:1030D000FFF7C8FD040014D00020256384F85100D8
:1030E000CDE90240CDE900874B463246514658466D
:1030F000FFF726FD2046FFF74BFC012004B0BDE89A
:10310000F09F2846FFF7B0FE4FF0FF30F6E7F0B52E
:1031100085B0DDE90B640A9DA6B1DCB154270097A8
:103120002663022684F85160002604AFCDE90246EA
:10313000CDE90057FFF704FD2046FFF729FC04986E
:1031400005B0F0BD502080F31188BFF34F8FBFF35F
:103150006F8FFEE7502080F31188BFF34F8FBFF3CE
:103160006F8FFEE72DE9F0412E4C0027A06B40B198
:10317000206A401C2062606A00B101273846BDE821
:10318000F0816669761C666113D16068006838B1A9
:10319000502080F31188BFF34F8FBFF36F8FFEE78E
:1031A0006068A1686160A060A06A401CA062FFF72F
:1031B00035FD206BDFF87080864209D360680068B7
:1031C00080B16068C068C568686886420DD22063B7
:1031D0002068C06A00EB800158F821000128CAD994
:1031E0000127C8E74FF0FF30F1E7281DFFF7B8FDD2
:1031F000A86A18B105F11800FFF7B2FDE86A0121CD
:10320000A26981401143A16100EB800108EB8100BC
:10321000291DFFF7E9FDE86A2168C96A8842CDD314
:103220000127CBE764000020E00400202DE9F047EF
:103230002C4D00242746A86B38B1FFF7E1FDA86BA1
:10324000401EA863A86B40B146E0502080F311886F
:10325000BFF34F8FBFF36F8FFEE72969224E012026
:10326000D1B3A6F1B40980463068E8B1F068C4680B
:1032700004F11800FFF774FD201DFFF771FDE06AEF
:10328000AA6908FA00F11143A96100EB800109EB7A
:103290008100211DFFF7A8FDE06A2968C96A8842FC
:1032A000E2D3C5F82480DFE70CB1FFF7B7FC2C6A46
:1032B00044B14646FFF756FF00B16E62641EF9D175
:1032C00000202862686A38B1084901273807086079
:1032D000BFF34F8FBFF36F8FFFF7B2FD3846BDE8E6
:1032E000F0870000640000209405002004ED00E059
:1032F0000000FCFC0C0C0C0C0C0C0C0C0C0C0C0C46
:103300000C0C0C0C0C0C0C0C0C0C0C0C0C0C0C0CFD
:103310000C0C0C0C0C0C0C0C0C0C0C0C0CFCFC0019
:1033200000000000FFFF00000F0F0F0F0F0FFFFF47
:10333000FFFFFFFF0F0F0F0F000000000000000F46
:103340000F0F0F0FFFFFFFFFFFFFFF0F0F0F00FF1C
:10335000FF0000000000FFFF000000000000000070
:10336000FFFFFFFFFFFF0000000000000000000063
:10337000000000000000FFFFFFFFFFFFFF00000054
:1033800000FFFF0000000000FFFF00000000000041
:10339000000003030303030300000000000000001B
:1033A0000000000000000000030303030303030008
:1033B000000000FFFF0000000000FFFF0000000011
:1033C00000000000000000000000000000000000FD
:1033D00000000000000000000000000000000000ED
:1033E0000000000000FFFF0000000000FFFF8080E1
:1033F000808080808080808080809F9F9F9F9F9F13
:103400009F9F9F9F9F9F9F9F9F9F9F9F9F80808029
:1034100080808080808080FFFF000000000001012C
:10342000010101010101010101010101010101018C
:10343000010101010101010101010101010101017C
:103440000101010101010101010101000000000071
:1034500078530008752100080000000000000000FB
:103460008000000000000000000000006053000821
:103470007D210008FDFF000000000000800000002A
:1034800000000000000000006C53000861220008EA
:10349000FDFF0000000000008000000000000000B0
:1034A00000000000010202030405060708090A0BD8
:1034B0000C0D0E0F101000000000000000000102B3
:1034C00003040607080900000000010203040000CD
:1034D000000000000000002F0000000007000700AF
:1034E00000147F147F1400242A7F2A1200626408CB
:1034F0001323003649552250000005030000000048
:103500001C224100000041221C000014083E081447
:103510000008083E0808000000A060000008080835
:103520000808000060600000002010080402003E4F
:103530005149453E0000427F4000004261514946EA
:10354000002141454B31001814127F1000274545DA
:103550004539003C4A4949300001710905030036EC
:103560004949493600064949291E000036360000FF
:103570000000563600000008142241000014141404
:1035800014140000412214080002015109060032FF
:103590004959513E007C1211127C007F494949363D
:1035A000003E41414122007F4141221C007F4949A8
:1035B0004941007F09090901003E4149497A007FDC
:1035C0000808087F0000417F4100002040413F0182
:1035D000007F08142241007F40404040007F020CE1
:1035E000027F007F0408107F003E4141413E007F82
:1035F00009090906003E4151215E007F091929464B
:103600000046494949310001017F0101003F404026
:10361000403F001F2040201F003F4038403F0063D4
:1036200014081463000708700807006151494543F6
:1036300000007F41410000552A552A5500004141B4
:103640007F000004020102040040404040400000AE
:1036500001020400002054545478007F4844443848
:1036600000384444442000384444487F00385454CF
:10367000541800087E0901020018A4A4A47C007F4D
:10368000080404780000447D4000004080847D00F0
:10369000007F102844000000417F4000007C041897
:1036A0000478007C0804047800384444443800FC62
:1036B000242424180018242418FC007C080404087E
:1036C00000485454542000043F444020003C4040F3
:1036D000207C001C2040201C003C4030403C00442A
:1036E00028102844001CA0A0A07C004464544C4432
:1036F0001414141414140000000000000000000052
:1037000000000000FC000000000002000000000CAF
:10371000020C020000000000000090D0BCD0BC9061
:103720000003000300001824FE448C00030207027B
:1037300001001824D8B04C80000300010201C038F9
:10374000E438E00001020201020208060000000065
:10375000000000000000000000F80402000000016A
:103760000204000204F8000000040201000090605E
:10377000F86090000000010000002020FC202000E4
:10378000000001000000000000000000080600002A
:103790000000202020202000000000000000000089
:1037A000000000000002000000000080601C020019
:1037B000040300000000F8040404F80001020202FF
:1037C00001000008FC000000000203020000188451
:1037D0004424180003020202020008042424D80032
:1037E00001020202010040B088FC800000000003DA
:1037F00002003C242424C400010202020100F82437
:10380000242CC0000102020201000C04E41C04008C
:10381000000003000000D8242424D8000102020282
:10382000010038444444F800000302020100000093
:103830001000000000000200000000002000000056
:103840000000060000000020508804020000000074
:103850000102909090909000000000000000000293
:10386000048850200002010000001804C42418003D
:10387000000002000000F804E494F80001020202D3
:10388000020000E09CF0800002030000030204FC40
:103890002424D800020302020100F80404040C00EE
:1038A00001020202010004FC0404F8000203020207
:1038B000010004FC24740C0002030202030004FC57
:1038C00024740C00020302000000F0080444CC4001
:1038D00000010202010004FC2020FC04020300009D
:1038E00003020404FC0404000202030202000004B8
:1038F00004FC040406040403000004FC24D00C04AB
:1039000002030200030204FC04000000020302029E
:103910000203FC3CC03CFC0003000300030004FC69
:1039200030C4FC04020302000300F8040404F8009D
:1039300001020202010004FC242418000203020018
:103940000000F8848404F80001020207050004FC6A
:1039500024649800020302000302182424448C000B
:103960000302020201000C04FC040C00000203022A
:10397000000004FC0000FC04000102020100047CC1
:1039800080E01C040000030000001CE03CE01C0080
:10399000000300030000049C609C04000203000379
:1039A0000200041CE01C04000002030200000C845E
:1039B000641C04000203020203000000FE02020075
:1039C000000007040400000E30C0000000000001E9
:1039D0000200000202FE00000004040700000004D0
:1039E00002040000000000000000000000000000D1
:1039F0000808080808080000020000000000000095
:103A000000000040A0A0C00000010202030204FC6C
:103A10002020C00000030202010000C0202060003E
:103A200000010202020000C02024FC00000102028A
:103A3000030200C0A0A0C00000010202020000209A
:103A4000F82424040002030202000040A0A0602029
:103A500000070A0A0A0404FC2020C0000203020036
:103A600003020020E4000000000203020000000046
:103A700020E4000008080807000004FC80E0202083
:103A80000203020003020404FC000000020203021D
:103A90000200E020E020C00003000300030020E05B
:103AA0002020C00002030200030200C02020C0004A
:103AB00000010202010020E02020C000080F0A02DD
:103AC000010000C02020E0000001020A0F0820E0F1
:103AD000402020000203020000000060A0A020009F
:103AE0000002020203000020F82000000000010292
:103AF000020020E00020E00000010202030220E0BA
:103B0000208060200000030100006080E0806000F1
:103B10000003000300002060806020000203000317
:103B2000020020E02080602008080701000000203B
:103B3000A0602000000203020200000020DE02005C
:103B4000000000070400000000FF00000000000F5C
:103B500000000002DE200000000407000000020157
:103B60000204040200000000000000000000000049
:103B700000000000000000000000000000F800004D
:103B80000000000000333000000000100C06100C94
:103B90000600000000000000000040C07840C0782F
:103BA0004000043F04043F040400007088FC083017
:103BB0000000001820FF211E0000F008F000E018AF
:103BC000000000211C031E211E0000F00888700068
:103BD00000001E2123241927211010160E000000BA
:103BE00000000000000000000000000000E01804D9
:103BF0000200000000071820400000020418E00046
:103C000000000040201807000000404080F0804085
:103C100040000202010F01020200000000F000005B
:103C200000000101011F010101000000000000006F
:103C3000000080B0700000000000000000000000E4
:103C4000000000010101010101010000000000006D
:103C50000000003030000000000000000000806024
:103C60001804006018060100000000E010080810A9
:103C7000E000000F102020100F00001010F80000CE
:103C800000000020203F2020000000700808088865
:103C90007000003028242221300000300888884835
:103CA00030000018202020110E000000C02010F865
:103CB000000000070424243F240000F80888880836
:103CC00008000019212020110E0000E0108888183B
:103CD0000000000F112020110E0000380808C8381D
:103CE00008000000003F00000000007088080888FD
:103CF0007000001C222121221C0000E01008081086
:103D0000E0000000312222110F00000000C0C000BE
:103D100000000000003030000000000000800000C3
:103D200000000000806000000000000080402010C3
:103D300008000001020408102000404040404040BC
:103D4000400004040404040404000008102040801F
:103D50000000002010080402010000704808080854
:103D6000F0000000003036010000C030C828E81024
:103D7000E0000718272423140B000000C038E000DF
:103D80000000203C23020227382008F88888887029
:103D90000000203F202020110E00C0300808080835
:103DA0003800071820202010080008F8080808101C
:103DB000E000203F202020100F0008F88888E80845
:103DC0001000203F20202320180008F88888E808E9
:103DD0001000203F200003000000C0300808083811
:103DE000000007182020221E020008F80800000822
:103DF000F808203F210101213F20000808F80808A9
:103E000000000020203F2020000000000808F808E3
:103E10000800C08080807F00000008F888C0281853
:103E20000800203F20012638200008F80800000084
:103E30000000203F20202020300008F8F800F8F88B
:103E40000800203F003F003F200008F830C0000875
:103E5000F808203F200007183F00E010080808106D
:103E6000E0000F10202020100F0008F808080808B4
:103E7000F000203F210101010000E01008080810B7
:103E8000E0000F18242438504F0008F888888888EC
:103E90007000203F2000030C3020007088080808C4
:103EA00038000038202121221C00180808F80808D2
:103EB00018000000203F2000000008F8080000085B
:103EC000F808001F202020201F000878880000C864
:103ED0003808000007380E010000F80800F8000854
:103EE000F800033C0700073C03000818688080685E
:103EF000180820302C03032C30200838C800C8389C
:103F000008000000203F2000000010080808C83802
:103F100008002038262120201800000000FE0202A0
:103F200002000000007F40404000000C30C0000054
:103F30000000000000010638C00000020202FE007E
:103F40000000004040407F00000000000402020228
:103F5000040000000000000000000000000000005D
:103F60000000808080808080808000020204000049
:103F70000000000000000000000000008080808041
:103F800000000019242222223F2008F8008080002F
:103F90000000003F112020110E00000000808080F2
:103FA0000000000E112020201100000000808088F9
:103FB000F800000E112020103F200000808080803B
:103FC0000000001F222222221300008080F0888837
:103FD00088180020203F2020000000008080808082
:103FE0008000006B94949493600008F800808080B7
:103FF0000000203F210000203F2000809898000012
:1040000000000020203F2020000000000080989841
:10401000000000C08080807F000008F800008080E1
:104020008000203F24022D302000000808F8000006
:1040300000000020203F20200000808080808080C1
:104040008000203F20003F20003F80800080808053
:104050000000203F210000203F2000008080808061
:104060000000001F202020201F0080800080800092
:10407000000080FFA12020110E0000000080808041
:104080008000000E112020A0FF80808080008080B2
:10409000800020203F2120000100000080808080DF
:1040A00080000033242424241900008080E08080D4
:1040B00000000000001F2020000080800000008021
:1040C0008000001F202020103F2080808000008082
:1040D000808000010E300806010080800080008092
:1040E00080800F300C030C300F0000808000808037
:1040F00080000020312E0E31200080808000008062
:10410000808080818E701806010000808080808011
:1041100080000021302C2221300000000000807C33
:10412000020200000000003F404000000000FF00CD
:10413000000000000000FF0000000002027C800080
:1041400000000040403F00000000000601010202A4
:104150000404000000000000000000000000000057
:10416000000000000000000000000000000000004F
:10417000000000000000000000000000000000003F
:10418000000000F0F0F0000000000000000000015E
:104190007F010000000000000000001C1C1C00004B
:1041A000000000008060301C8C60301C0C0000009F
:1041B00000000000000000000000000000000000FF
:1041C000000000000000000000E00000000000E02F
:1041D00000000086E69F86868686E69F86000001B0
:1041E0001F01010101011F010100000080C06020CA
:1041F000F820E0C00000000003070C18FF70E18108
:1042000000000000070F10107F100F0700008060F3
:10421000206080000000E02000000F3020309F7000
:10422000DC371030C0000000100E03000718101813
:1042300007000000C02020E0C0000000000080E077
:104240001F38E88703C43C040000070F1810100B48
:10425000070D1010080000808C4C38000000000092
:10426000000000000000000000000000000000004E
:10427000000000000000000000000000000000003E
:1042800080E0300804000000000000FEFF01000094
:104290000000000000000000030F18204000000490
:1042A0000830E0800000000000000000000001FF76
:1042B000FE0000000000004020180F030000000076
:1042C0000000000000000000C000000000000042EC
:1042D00066663C18FF183C6666420000000000005D
:1042E000030000000000000000000000800000004B
:1042F0000000001010101010FF101010101000001F
:1043000000000000030000000000000000000000AA
:10431000000000000000000000000000000000009D
:10432000000000808C4C38000000000000000000FD
:10433000000000000000000000000010101010102D
:10434000101010101000000000000000000000001D
:10435000000000000000000000000000000000005D
:104360000000000000000000000000001C1C1C00F9
:104370000000000000000000000000000000E03825
:104380000C000000000080701C03000000000060B2
:10439000380E0100000000000000000080C0602016
:1043A0002060C080000000FEFF010000000001FF4F
:1043B000FE000001070E181010180E070100000083
:1043C000808080C0E000000000000000000000FFCE
:1043D000FF000000000000001010101F1F10101040
:1043E00000000080402020202060C08000000003EA
:1043F0000300804020381F070000001C1A191818FD
:104400001818181F00000080C020202060C0800005
:104410000000000303001010182FE78000000007C1
:104420000F10101010180F0700000000000000000F
:10443000C0E0F000000000C0B088868180FFFF80EF
:104440008000000000000010101F1F10100000006E
:10445000E060606060606060000000003F1008087D
:104460000818F0E0000000070B101010101C0F03DC
:104470000000000080C040202020E0C0000000FCC0
:10448000FF211008080818F0E0000001070C1810C0
:104490001010080F03000000C0E06060606060E082
:1044A0006000000003000000E018070000000000AA
:1044B0000000001F1F00000000000080C0602020DE
:1044C000202060C080000087EF2C1818303068CFA3
:1044D000830000070F0810101010180F07000000CD
:1044E000C0C020202020C0800000001F3F6040404E
:1044F000402010FFFE0000000C1C101010080F03DD
:1045000000000000000000000000000000000000AB
:104510000000000E0E0E0000000000000000001C55
:104520001C1C000000000000000000000000000053
:10453000000000000000000C0C0000000000000063
:1045400000000058380000000000000000000000DB
:10455000008040201000000010284482010000006C
:10456000000000000000000001020408100000002C
:1045700000000000000000000000008484848484A7
:104580008484848484000000000000000000000097
:10459000000000001020408000000000000000002B
:1045A00000000000018244281000000010080402EE
:1045B00001000000000000C020201010101030E0AA
:1045C000C0000003030000F010080C070300000007
:1045D00000001C1C1C0000000000000000C0406027
:1045E00020202040C00000FCFF01F00E03C1FE03AC
:1045F000807F0001070E081111101109040200004C
:10460000000080E0E000000000000000807C4340EB
:10461000477FF880000010181F1000000000131FD3
:104620001C1020E0E02020202060C080000000FF5F
:10463000FF10101010182FE78000101F1F1010100F
:104640001010180F0700000080C0402020202060BC
:10465000E00000FCFF01000000000000010000017C
:10466000070E181010100804030020E0E02020209E
:104670002040C080000000FFFF000000000001FF9C
:10468000FE00101F1F10101018080E07010020E078
:10469000E020202020202060800000FFFF1010106C
:1046A000107C00000000101F1F10101010101018B8
:1046B000060020E0E020202020206060800000FF35
:1046C000FF101010107C00000100101F1F100000D0
:1046D000000000000000000080C06020202040E0BA
:1046E000000000FCFF0100004040C0C1404000014C
:1046F000070E181010100F0F000020E0E02000003F
:10470000000020E0E02000FFFF101010101010FF4C
:10471000FF00101F1F1000000000101F1F100000DE
:10472000202020E0E020202000000000000000FF0A
:10473000FF000000000000001010101F1F101010DC
:10474000000000000000202020E0E02020200000E9
:104750000000000000FFFF0000000060E08080809B
:10476000C07F3F00000020E0E020000020A060208B
:10477000200000FFFF30187CE3C000000000101F85
:104780001F10000001131F1C181020E0E020000083
:1047900000000000000000FFFF000000000000001B
:1047A0000000101F1F10101010101018060020E03D
:1047B000E0E000000000E0E0E02000FF013FFEC07C
:1047C000E01E01FFFF00101F1000031F0300101F59
:1047D0001F1020E0E0C0000000000020E02000FFEB
:1047E0000003071C78E08000FF00101F100000008D
:1047F0000000030F1F00000080C060202060C08008
:10480000000000FEFF010000000000FFFE000001AC
:10481000070E181010180C07010020E0E0202020DF
:10482000202060C0800000FFFF2020202020301FBB
:104830000F00101F1F10000000000000000000000B
:1048400080C060202060C080000000FEFF010000EA
:10485000000000FFFE000001070E1111133C7C67F1
:10486000210020E0E0202020202060C0800000FF08
:10487000FF101030F0D0080F0700101F1F100000AD
:1048800000030F1C10100080C0602020202040403A
:10489000E00000070F0C1818303060E08100001FA6
:1048A0000C0810101010180F07008060202020E066
:1048B000E020202060800100000000FFFF000000D9
:1048C000000100000000101F1F100000000020E089
:1048D000E020000000000020E02000FFFF000000BA
:1048E00000000000FF0000070F1810101010100843
:1048F00007002060E0E02000000020E060200000D1
:10490000077FF88000807C03000000000000071F84
:104910001C070000000020E0E02000E0E020002074
:10492000E0200007FFF8E01FFFFCE01F0000000090
:10493000031F0300011F03000000002060E0A0002F
:104940000020E0602000000000038F7CF8C601001A
:1049500000000010181E130001171F18100020601F
:10496000E0E02000000020E06020000001073EF8A9
:10497000E0180700000000000010101F1F101000BA
:10498000000000806020202020A0E0E02000000047
:104990000000C0F03E0F0300000000101C1F1710A5
:1049A0001010101806000000000000FC04040404AD
:1049B00004000000000000FF0000000000000000F4
:1049C0000000007F404040404000000010E0000038
:1049D00000000000000000000000031C60800000D8
:1049E000000000000000000000030C7080000000C8
:1049F0000404040404FC00000000000000000000A7
:104A000000FF00000000000040404040407F0000E8
:104A1000000000000010080C040C0810000000004A
:104A20000000000000000000000000000000000086
:104A30000000000000000000000000000000000076
:104A40000000000000000000000000000000808066
:104A50008080808080808080808000000004040846
:104A6000080000000000000000000000000000003E
:104A70000000000000000000000000000000000036
:104A800000000000000000000000000098D844640E
:104A90002424FCF80000000F1F18101010081F1F1E
:104AA00010180020E0F000000000000000000000EE
:104AB000FFFF180804040CF8F00000001F0F181086
:104AC0001010180F0300000000000000000000009C
:104AD000000000E0F8180404043C38000000000363
:104AE0000F0C10101010080600000000000000005D
:104AF0000020E0F0000000E0F81C04040408FFFFC0
:104B0000000000030F18101010081F0F080000000D
:104B1000000000000000000000000000E0F8484431
:104B200044444C7870000000030F0C18101010085B
:104B300004000000000080C0602020E0C0000004ED
:104B40000404FFFF040404040000000010101F1FF1
:104B50001010100000000000000000000000000025
:104B60000000000070F88C04048CF874040C0070D1
:104B700076CF8D8D8D89C87870000020E0F0000020
:104B80000000000000000000FFFF08040404FCF81F
:104B9000000000101F1F100000101F1F1000000059
:104BA000000000606000000000000000040404FC3D
:104BB000FC000000000000001010101F1F1010105B
:104BC0000000000000000000006060000000000025
:104BD0000000040404FCFC0000000000C0C0808051
:104BE000C07F3F0000000020E0F000000000000057
:104BF00000000000FFFF80C0F41C0404000000104F
:104C00001F1F1100031F1C1010000000202020E0B7
:104C1000F000000000000000000000FFFF000000A6
:104C2000000000001010101F1F10101000000000E6
:104C30000000000000000000000004FCFC0804FC70
:104C4000FC0804FCFC00101F1F10001F1F10001F99
:104C50001F10000000000000000000000000000421
:104C6000FCFC08080404FCF8000000101F1F1000E2
:104C700000101F1F100000000000000000000000D6
:104C8000000000E0F0180C04040C18F0E000000331
:104C90000F0C101010100C0F03000000000000009B
:104CA0000000000000000004FCFC080404040CF8F0
:104CB000F0000080FFFF889010101C0F0300000020
:104CC0000000000000000000000000E0F81C0404E8
:104CD0000408F8FC000000030F1810109088FFFF74
:104CE000800000000000000000000000000004043C
:104CF00004FCFC100804040C0C001010101F1F1002
:104D00001010000000000000000000000000000083
:104D1000000000003078CCC48484840C1C000000A7
:104D20001E1810101011190F06000000000000C01E
:104D300000000000000000040404FFFF040404005D
:104D40000000000000000F1F1010100C00000000F9
:104D5000000000000000000000000004FCFE000055
:104D60000004FCFE000000000F1F181010081F0FA9
:104D70000800000000000000000000000000000427
:104D80000C3CFCC40000C43C0C0400000000010FFB
:104D90001E0E0100000000000000000000000000E6
:104DA0000000043CFCC400E47CFC84807C04000023
:104DB000071F070000071F07000000000000000099
:104DC0000000000000000004041C7CE4C0341C044B
:104DD00004000010101C1601131F1C181000000006
:104DE0000000000000000000000000040C3CFCC4B7
:104DF00000C43C0404000000C080C1370E01000064
:104E000000000000000000000000000000000000A2
:104E10001C0404C4F47C1C0400000000101C1F17B8
:104E2000111010180E0000000000000000F80C0423
:104E3000000000000000001028EF0000000000004B
:104E400000000000003F6040000000000000000083
:104E5000FF0000000000000000000000FF00000054
:104E60000000000000000000FF0000000000000043
:104E7000040CF80000000000000000000000EF2813
:104E8000100000000000000040603F000000000033
:104E9000000000180602020408102020300800005C
:104EA0000000000000000000000000000000000002
:104EB0000000000000000000F010101010FF1010A3
:104EC0001010F000000000000F04040404FF0404AC
:104ED00004040F0000004040405F5555557555557E
:104EE000555F404040000040200F09498979090979
:104EF000090F2040000000FE02424ACA4A4ACA4A3C
:104F00004A4202FE000000FF40504C4340404F50D8
:104F1000505C40FF00000000F888888888FF88887F
:104F20008888F800000000001F080808087F8888AB
:104F300088889F80F00080828282828282E2A292B0
:104F40008A8682808000000000000040807F000090
:104F5000000000000000101010FF109008888888E2
:104F6000FF88888808000444827F01808040432CA9
:104F70001028468180000010101010D030FF30D073
:104F8000121C1010000010080402010000FF0000B5
:104F900001020408100004040484E43C27242424AF
:104FA00024E40404040004020100FF09090909497A
:104FB000897F0000000000FE225A8600FE92929235
:104FC0009292FE00000000FF04080700FF4020034B
:104FD0000C14224140000080402018068000071871
:104FE000204080000000010020702826212020247D
:104FF0003860000101000010129292929292921277
:105000001202FE0000000000003F101010103F00D0
:1050100040807F00000000FC0404FC00FE9292FE31
:105020009292FE000000000F04040F02FE42220EC6
:105030001222528A8200202010F0A8A4AAB1A2A4B1
:10504000A8F010202000000000FF8242220A0A126D
:10505000122B448000000000F010101010FF101000
:105060001010F000000000000F04040404FF04040A
:1050700004040F00000000202020A06000FF6080DA
:10508000402018000000201008060140807F000129
:10509000020408101000000000C080808080808022
:1050A00080FC84808080808080C0C0000000000080
:1050B00000FF7F404040404040FF40404040404073
:1050C00040FF7F0000000000000000000000000022
:1050D000007F7000000000000000000000000000E1
:1050E00000000000000000000000000000FCF800CC
:1050F00000000000000000000000000000000000B0
:105100000000FFFE020202020202020202FFFF0290
:105110000202020202020202FF030000000000007D
:1051200000001F1F040404040404040404FFFF041B
:1051300004040404040404041F0000000000000030
:10514000000000000000000000000000007F3F00A1
:10515000000000000000000000000000000000004F
:10516000000000000000000000000000000000003F
:105170000000000000000000000000F8F8F0F070EF
:1051800020000000000000000000000000000000FF
:10519000000000000000000000000000000000000F
:1051A000000000000000800000000000000000007F
:1051B0000000000000000000000000FFFFFFFF00F3
:1051C00000000000000000000000000000000000DF
:1051D00000008080000000000000000000000000CF
:1051E00000000000000000FFFFFE0606060606069F
:1051F0000606060606060606060606FFFFFFFF066B
:10520000060606060606060606060606060606063E
:1052100006FFFFFFFF070200000000000000000083
:1052200000000000000000FFFFFF00000000000081
:105230000000000000000000000000FFFFFFFF0072
:10524000000000000000000000000000000000005E
:1052500000FFFFFFFF000000000000000000000052
:1052600000000000000000FFFFFF181818181818B1
:105270001818181818181818181818FFFFFFFF1812
:10528000181818181818181818181818181818189E
:1052900018FFFFFFFF0000000000000000000000FA
:1052A00000000000000002010100000000000000FA
:1052B0000000000000000000000000FFFFFFFF00F2
:1052C00000000000000000000000000000000000DE
:1052D00000010100000000000000000000000000CC
:1052E00000000000000000000000000000000000BE
:1052F0000000000000000000000000FFFFFFFF00B2
:10530000000000000000000000000000000000009D
:10531000000000000000000000000000000000008D
:10532000000000000000000000000000000000007D
:1053300000000000000000000000001F1F0F0F0011
:10534000000000000000000000000000000000005D
:10535000000000000000000000000000000000004D
:105360006D795461736B4C45443100006D79546123
:10537000736B4C454432000064656661756C74540F
:1053800061736B00A453000800000020C4000000FB
:105390002801000868540008C4000020EC37000011
:1053A0004401000800000000000000000C000000A4
:1053B00000000000000000000000000000000000ED
:1053C00000000000000000000000000000000000DD
:1053D00000000000000000000000000000000000CD
:1053E0000000000000000800080A0C1E0C28130032
:1053F0001337000000000000010000001000000052
:10540000000000000024F400000000000000000084
:10541000000000000000000000000000000000008C
:10542000000000000000000000000000000000007C
:10543000000000000000000000000000000000006C
:10544000000000000000000000000000000000005C
:10545000000000000000000000000000000000004C
:08546000AAAAAAAA000000009C
:04000005080000ED02
:00000001FF
